{
  "contractName": "SensorContract",
  "abi": [
    {
      "inputs": [],
      "payable": false,
      "stateMutability": "nonpayable",
      "type": "constructor"
    },
    {
      "constant": true,
      "inputs": [],
      "name": "getCurrentID",
      "outputs": [
        {
          "name": "",
          "type": "uint256"
        }
      ],
      "payable": false,
      "stateMutability": "view",
      "type": "function"
    },
    {
      "constant": false,
      "inputs": [],
      "name": "incrCurrentID",
      "outputs": [],
      "payable": false,
      "stateMutability": "nonpayable",
      "type": "function"
    },
    {
      "constant": false,
      "inputs": [
        {
          "name": "_filehash",
          "type": "string"
        }
      ],
      "name": "setSensorData",
      "outputs": [],
      "payable": false,
      "stateMutability": "nonpayable",
      "type": "function"
    },
    {
      "constant": true,
      "inputs": [],
      "name": "getSensorDataLatest",
      "outputs": [
        {
          "name": "",
          "type": "string"
        }
      ],
      "payable": false,
      "stateMutability": "view",
      "type": "function"
    },
    {
      "constant": true,
      "inputs": [
        {
          "name": "ID",
          "type": "uint256"
        }
      ],
      "name": "getSensorDataByID",
      "outputs": [
        {
          "name": "",
          "type": "string"
        }
      ],
      "payable": false,
      "stateMutability": "view",
      "type": "function"
    }
  ],
  "bytecode": "0x608060405234801561001057600080fd5b506001600281905550610539806100286000396000f30060806040526004361061006d576000357c0100000000000000000000000000000000000000000000000000000000900463ffffffff1680631ca1d34e146100725780631ea7c881146101025780632681636f1461016b5780632a73542c14610182578063ef1e7df314610228575b600080fd5b34801561007e57600080fd5b50610087610253565b6040518080602001828103825283818151815260200191508051906020019080838360005b838110156100c75780820151818401526020810190506100ac565b50505050905090810190601f1680156100f45780820380516001836020036101000a031916815260200191505b509250505060405180910390f35b34801561010e57600080fd5b50610169600480360381019080803590602001908201803590602001908080601f0160208091040260200160405190810160405280939291908181526020018383808284378201915050505050509192919290505050610318565b005b34801561017757600080fd5b5061018061038d565b005b34801561018e57600080fd5b506101ad600480360381019080803590602001909291905050506103a1565b6040518080602001828103825283818151815260200191508051906020019080838360005b838110156101ed5780820151818401526020810190506101d2565b50505050905090810190601f16801561021a5780820380516001836020036101000a031916815260200191505b509250505060405180910390f35b34801561023457600080fd5b5061023d61045e565b6040518082815260200191505060405180910390f35b60606000806000600161026461045e565b0381526020019081526020016000209050806000018054600181600116156101000203166002900480601f01602080910402602001604051908101604052809291908181526020018280546001816001161561010002031660029004801561030d5780601f106102e25761010080835404028352916020019161030d565b820191906000526020600020905b8154815290600101906020018083116102f057829003601f168201915b505050505091505090565b60008061032361045e565b9150600080838152602001908152602001600020905082816000019080519060200190610351929190610468565b506001600254908060018154018082558091505090600182039060005260206000200160009091929091909150555061038861038d565b505050565b600260008154809291906001019190505550565b606060008060008481526020019081526020016000209050806000018054600181600116156101000203166002900480601f0160208091040260200160405190810160405280929190818152602001828054600181600116156101000203166002900480156104515780601f1061042657610100808354040283529160200191610451565b820191906000526020600020905b81548152906001019060200180831161043457829003601f168201915b5050505050915050919050565b6000600254905090565b828054600181600116156101000203166002900490600052602060002090601f016020900481019282601f106104a957805160ff19168380011785556104d7565b828001600101855582156104d7579182015b828111156104d65782518255916020019190600101906104bb565b5b5090506104e491906104e8565b5090565b61050a91905b808211156105065760008160009055506001016104ee565b5090565b905600a165627a7a723058204b53316e69d3427436771deeaf432b99861dc75d981a78fa39afefd26a72b1350029",
  "source": "pragma solidity 0.4.24;\n\ncontract SensorContract{\n\n    //Contract created by\n    //address private createdBy;\n    \n    //struct to store the filehashes which store the actual sensor data\n    struct SensorData{\n        //filehash is the swarm handle containing the actual sensor readings\n        string filehash;\n    }\n    \n    //map the struct to an id\n    mapping(uint => SensorData) sensorDataStore;\n    \n    //dynamic array of ids to store the readings \n    uint[] private sensorIDStore;\n    \n    //CurrentID is the ID of the latest file handle created in Swarm\n    uint private currentID;\n\n    //Constructor for the Smart Contract\n    constructor() public {\n        currentID = 1;\n    }\n\n    //function to get the currentID\n    function getCurrentID() public view returns(uint){\n        return currentID;\n    }\n\n    //function to increment the ID used internally for managing filehashes\n    function incrCurrentID() public{\n        currentID++;\n    }\n    \n    //Function to store the filehash from swarm\n    function setSensorData(string _filehash) public {\n        uint idToStore = getCurrentID();\n        SensorData storage sensorReadings = sensorDataStore[idToStore];\n\n        sensorReadings.filehash = _filehash;\n       \n        sensorIDStore.push(currentID);\n        incrCurrentID();\n    }\n    \n    \n    //Function to get the latest stored data\n    function getSensorDataLatest() public view returns (string){\n        SensorData storage sensorReadings = sensorDataStore[getCurrentID()-1];\n\n        return sensorReadings.filehash;\n    }\n    \n    //Function to get the data stored under some ID\n    function getSensorDataByID(uint ID) public view returns (string){\n        SensorData storage sensorReadings = sensorDataStore[ID];\n\n        return sensorReadings.filehash;\n    }\n}",
  "sourcePath": "/home/vinay/Thesis/thesis-smartcontract-code/contracts/SensorContract.sol",
  "compiler": {
    "name": "solc",
    "version": "0.4.24+commit.e67f0147.Emscripten.clang"
  },
  "schemaVersion": "2.0.1",
  "updatedAt": "2019-02-26T07:43:46.183Z"
}