{
  "contractName": "SensorContract",
  "abi": [
    {
      "constant": true,
      "inputs": [
        {
          "name": "",
          "type": "uint256"
        }
      ],
      "name": "sensorIDStore",
      "outputs": [
        {
          "name": "",
          "type": "uint256"
        }
      ],
      "payable": false,
      "stateMutability": "view",
      "type": "function"
    },
    {
      "constant": true,
      "inputs": [],
      "name": "currentID",
      "outputs": [
        {
          "name": "",
          "type": "uint256"
        }
      ],
      "payable": false,
      "stateMutability": "view",
      "type": "function"
    },
    {
      "inputs": [],
      "payable": false,
      "stateMutability": "nonpayable",
      "type": "constructor"
    },
    {
      "constant": true,
      "inputs": [],
      "name": "getCurrentID",
      "outputs": [
        {
          "name": "",
          "type": "uint256"
        }
      ],
      "payable": false,
      "stateMutability": "view",
      "type": "function"
    },
    {
      "constant": false,
      "inputs": [],
      "name": "incrCurrentID",
      "outputs": [
        {
          "name": "",
          "type": "uint256"
        }
      ],
      "payable": false,
      "stateMutability": "nonpayable",
      "type": "function"
    },
    {
      "constant": false,
      "inputs": [
        {
          "name": "_temperature",
          "type": "uint64"
        },
        {
          "name": "_humidity",
          "type": "uint64"
        },
        {
          "name": "_dataStorageTime",
          "type": "string"
        }
      ],
      "name": "setSensorData",
      "outputs": [],
      "payable": false,
      "stateMutability": "nonpayable",
      "type": "function"
    },
    {
      "constant": true,
      "inputs": [],
      "name": "getSensorDataLatest",
      "outputs": [
        {
          "name": "",
          "type": "uint64"
        },
        {
          "name": "",
          "type": "uint64"
        },
        {
          "name": "",
          "type": "string"
        }
      ],
      "payable": false,
      "stateMutability": "view",
      "type": "function"
    },
    {
      "constant": true,
      "inputs": [
        {
          "name": "ID",
          "type": "uint256"
        }
      ],
      "name": "getSensorDataByID",
      "outputs": [
        {
          "name": "",
          "type": "uint64"
        },
        {
          "name": "",
          "type": "uint64"
        },
        {
          "name": "",
          "type": "string"
        }
      ],
      "payable": false,
      "stateMutability": "view",
      "type": "function"
    }
  ],
  "bytecode": "0x608060405234801561001057600080fd5b50600060028190555061075d806100286000396000f300608060405260043610610083576000357c0100000000000000000000000000000000000000000000000000000000900463ffffffff16806302a32e68146100885780631c75cfb4146100c95780631ca1d34e146100f45780632681636f146101ba5780632a73542c146101e5578063dc08a27d146102c1578063ef1e7df314610352575b600080fd5b34801561009457600080fd5b506100b36004803603810190808035906020019092919050505061037d565b6040518082815260200191505060405180910390f35b3480156100d557600080fd5b506100de6103a0565b6040518082815260200191505060405180910390f35b34801561010057600080fd5b506101096103a6565b604051808467ffffffffffffffff1667ffffffffffffffff1681526020018367ffffffffffffffff1667ffffffffffffffff16815260200180602001828103825283818151815260200191508051906020019080838360005b8381101561017d578082015181840152602081019050610162565b50505050905090810190601f1680156101aa5780820380516001836020036101000a031916815260200191505b5094505050505060405180910390f35b3480156101c657600080fd5b506101cf6104a6565b6040518082815260200191505060405180910390f35b3480156101f157600080fd5b50610210600480360381019080803590602001909291905050506104be565b604051808467ffffffffffffffff1667ffffffffffffffff1681526020018367ffffffffffffffff1667ffffffffffffffff16815260200180602001828103825283818151815260200191508051906020019080838360005b83811015610284578082015181840152602081019050610269565b50505050905090810190601f1680156102b15780820380516001836020036101000a031916815260200191505b5094505050505060405180910390f35b3480156102cd57600080fd5b50610350600480360381019080803567ffffffffffffffff169060200190929190803567ffffffffffffffff169060200190929190803590602001908201803590602001908080601f01602080910402602001604051908101604052809392919081815260200183838082843782019150505050505091929192905050506105b9565b005b34801561035e57600080fd5b5061036761067f565b6040518082815260200191505060405180910390f35b60018181548110151561038c57fe5b906000526020600020016000915090505481565b60025481565b600080606060008060006103b861067f565b815260200190815260200160002090508060000160009054906101000a900467ffffffffffffffff168160000160089054906101000a900467ffffffffffffffff1682600101808054600181600116156101000203166002900480601f0160208091040260200160405190810160405280929190818152602001828054600181600116156101000203166002900480156104935780601f1061046857610100808354040283529160200191610493565b820191906000526020600020905b81548152906001019060200180831161047657829003601f168201915b5050505050905093509350935050909192565b60006002600081548092919060010191905055905090565b6000806060600080600086815260200190815260200160002090508060000160009054906101000a900467ffffffffffffffff168160000160089054906101000a900467ffffffffffffffff1682600101808054600181600116156101000203166002900480601f0160208091040260200160405190810160405280929190818152602001828054600181600116156101000203166002900480156105a45780601f10610579576101008083540402835291602001916105a4565b820191906000526020600020905b81548152906001019060200180831161058757829003601f168201915b50505050509050935093509350509193909250565b600080600060025481526020019081526020016000209050838160000160006101000a81548167ffffffffffffffff021916908367ffffffffffffffff160217905550828160000160086101000a81548167ffffffffffffffff021916908367ffffffffffffffff1602179055508181600101908051906020019061063f92919061068c565b506001806002549080600181540180825580915050906001820390600052602060002001600090919290919091505550506106786104a6565b5050505050565b6000600160025403905090565b828054600181600116156101000203166002900490600052602060002090601f016020900481019282601f106106cd57805160ff19168380011785556106fb565b828001600101855582156106fb579182015b828111156106fa5782518255916020019190600101906106df565b5b509050610708919061070c565b5090565b61072e91905b8082111561072a576000816000905550600101610712565b5090565b905600a165627a7a72305820c3d173181cfd7de8e29bc58dc29837b5a2448091747fb6b530f6ab85f923489c0029",
  "source": "pragma solidity 0.4.24;\n\ncontract SensorContract{\n    \n    //struct to store the temperature, humidity and time when reading occurred\n    struct SensorData{\n        uint64 temperature;\n        uint64 humidity;\n        string dataStorageTime;\n    }\n    \n    //map the struct to an id\n    mapping(uint => SensorData) sensorDataStore;\n    \n    //dynamic array of ids to store the readings \n    uint[] public sensorIDStore;\n    \n    //var to keep track of latest reading.\n    uint public currentID;\n\n    constructor() public {\n        currentID = 0;\n    }\n\n    //function to get the currentID\n    function getCurrentID() public view returns(uint){\n        return currentID-1;\n    }\n\n    function incrCurrentID() public returns(uint){\n        return currentID++;\n    }\n    \n    //Function to store the data coming from IOT DHT11 sensor\n    function setSensorData(uint64 _temperature, uint64 _humidity, string _dataStorageTime) public {\n        SensorData storage sensorReadings = sensorDataStore[currentID];\n\n        sensorReadings.temperature = _temperature;\n        sensorReadings.humidity = _humidity;\n        sensorReadings.dataStorageTime = _dataStorageTime;\n        \n        sensorIDStore.push(currentID)-1;\n        incrCurrentID();\n    }\n    \n    \n    //Function to get the latest stored data\n    function getSensorDataLatest() public view returns (uint64, uint64, string){\n        SensorData storage sensorReadings = sensorDataStore[getCurrentID()];\n\n        return (sensorReadings.temperature, sensorReadings.humidity, sensorReadings.dataStorageTime);\n    }\n    \n    //Function to get the data stored under some ID\n    function getSensorDataByID(uint ID) public view returns (uint64, uint64, string){\n        SensorData storage sensorReadings = sensorDataStore[ID];\n\n        return (sensorReadings.temperature, sensorReadings.humidity, sensorReadings.dataStorageTime);\n    }    \n}",
  "sourcePath": "/home/vinay/IOTPvtBlockchain/Projects/TempAndHumidity/contracts/SensorContract.sol",
  "compiler": {
    "name": "solc",
    "version": "0.4.24+commit.e67f0147.Emscripten.clang"
  },
  "schemaVersion": "2.0.1",
  "updatedAt": "2018-12-04T18:46:17.635Z"
}