{
  "contractName": "TempAndHumidityStore",
  "abi": [
    {
      "constant": false,
      "inputs": [
        {
          "name": "temperatureInput",
          "type": "uint64"
        },
        {
          "name": "humidityInput",
          "type": "uint64"
        }
      ],
      "name": "setSensorData",
      "outputs": [
        {
          "name": "success",
          "type": "bool"
        }
      ],
      "payable": false,
      "stateMutability": "nonpayable",
      "type": "function"
    },
    {
      "constant": true,
      "inputs": [],
      "name": "getSensorData",
      "outputs": [
        {
          "name": "",
          "type": "uint64"
        },
        {
          "name": "",
          "type": "uint64"
        }
      ],
      "payable": false,
      "stateMutability": "view",
      "type": "function"
    }
  ],
  "bytecode": "0x608060405260008060006101000a81548167ffffffffffffffff021916908367ffffffffffffffff16021790555060008060086101000a81548167ffffffffffffffff021916908367ffffffffffffffff16021790555034801561006257600080fd5b506101cf806100726000396000f30060806040526004361061004c576000357c0100000000000000000000000000000000000000000000000000000000900463ffffffff1680637f27904114610051578063f1195a26146100ab575b600080fd5b34801561005d57600080fd5b5061006661010e565b604051808367ffffffffffffffff1667ffffffffffffffff1681526020018267ffffffffffffffff1667ffffffffffffffff1681526020019250505060405180910390f35b3480156100b757600080fd5b506100f4600480360381019080803567ffffffffffffffff169060200190929190803567ffffffffffffffff169060200190929190505050610146565b604051808215151515815260200191505060405180910390f35b6000806000809054906101000a900467ffffffffffffffff16600060089054906101000a900467ffffffffffffffff16915091509091565b6000826000806101000a81548167ffffffffffffffff021916908367ffffffffffffffff16021790555081600060086101000a81548167ffffffffffffffff021916908367ffffffffffffffff16021790555060019050929150505600a165627a7a72305820a29b8b00bae566c80fac17cacf49e1ec42d2e783bb1e5b67fd1122d85e4ab9240029",
  "source": "pragma solidity ^0.4.20;\n\ncontract TempAndHumidityStore{\n    \n    //variables to store current temperature and humidity.\n    uint64 temperature = 0;\n    uint64 humidity = 0;\n    \n    \n    //method to store the current temperature and humidity\n    function setSensorData(uint64 temperatureInput, uint64 humidityInput) public returns (bool success){\n        temperature = temperatureInput;\n        humidity = humidityInput;\n        return true;\n    }\n    \n    //method to retrieve the current temperature and humidity\n    function getSensorData() public view returns (uint64, uint64){\n        return (temperature, humidity);\n    }\n}",
  "sourcePath": "/home/vinay/IOTPvtBlockchain/Projects/TempAndHumidity/contracts/SensorContract.sol",
  "compiler": {
    "name": "solc",
    "version": "0.4.24+commit.e67f0147.Emscripten.clang"
  },
  "schemaVersion": "2.0.1",
  "updatedAt": "2018-11-12T02:30:19.957Z"
}